:020000040000FA
:0400000012EF12F0F9
:10100000007072696E74662063616E20626520757F
:10101000736564206966206120707574636820665A
:10102000756E6374696F6E20686173206265656EAA
:1010300020646566696E6564200A0D00506C656108
:10104000736520656E7465722061206368617261EA
:101050006374657220616E642074686973207769B7
:101060006C6C206265206563686F6564200A0A0DF8
:101070000054686520617363696920636F6465204B
:10108000666F72207468697320636861726163744B
:101090006572206973202578200A0D005369676EF8
:1010A000656420696E74656765722056616C75654C
:1010B000206973202564200A0D0054686520636848
:1010C00061726163746572207479706564206973FC
:1010D000202563200A0D00427974652056616C75E5
:1010E000652069732025640048656C6C6F0A0D00EB
:0110F00000FF
:1010F200000165BF7FEF08F081EF08F084EF08F090
:10110200669384EF08F065BF91EF08F0655106E140
:101112006405D8B08FEF08F091EF08F097EF08F070
:10112200000E366E010E356E9BEF08F064C035F08E
:1011320065C036F062C037F063C038F066A9A4EF2C
:1011420008F0A6EF08F0ACEF08F0FE0E3726FF0E0F
:101152003822ACEF08F020C039F021C03AF022C0AA
:101162003BF023C03CF024C03DF025C03EF026C039
:101172003FF027C040F0000E426E1F0E416E680E17
:101182004124D96E000E4220DA6E000EDF6E9CEF13
:1011920009F04106D8A042060F0E3914436E446A84
:1011A20044BEDDEF08F0445009E10A0E435CD8A0CA
:1011B200DDEF08F0DFEF08F0E7EF08F0570E432409
:1011C200436E000E4420446EEDEF08F0300E4324CF
:1011D200436E000E4420446EBF0E296EFF0E2A6E2F
:1011E20028502B6E2C6A29502B262A502C222C5048
:1011F2000AE11A0E2B5CD8A001EF09F004EF09F006
:10120200010E05EF09F0000E316E326A14EF09F09B
:1012120028C001F0026AB3EC11F001C031F002C043
:1012220032F014EF09F031503210D8B41BEF09F04C
:101232001DEF09F05DEF09F09F0E296EFF0E2A6E79
:10124200200E43102B6E000E44102C6E29502B26BC
:101252002A502C222C500AE11A0E2B5CD8A034EF13
:1012620009F037EF09F0010E38EF09F0000E336E86
:10127200346A48EF09F043C001F044C002F036EC92
:1012820011F001C033F002C034F048EF09F03350DE
:101292003410D8B44FEF09F051EF09F05DEF09F0C7
:1012A20043C007F044C008F000EC10F007C043F060
:1012B20008C044F05DEF09F0680E4124D96E000EBB
:1012C2004220DA6E43C0DFFF3506D8A03606370665
:1012D200D8A0380639C029F03AC02AF03BC02BF01A
:1012E2003CC02CF03DC02DF03EC02EF03FC02FF090
:1012F20040C030F0050E87EF09F0D89030322F321F
:101302002E322D322C322B322A322932E82E7EEF27
:1013120009F029C039F02AC03AF02BC03BF02CC0AA
:101322003CF02DC03DF02EC03EF02FC03FF030C04B
:1013320040F09CEF09F042BEA8EF09F0425009E1EB
:10134200020E415CD8A0A8EF09F0AAEF09F0DFEF86
:1013520009F039503A103B103C103D103E103F103E
:101362004010D8A4B7EF09F0B9EF09F0CAEF08F0BE
:1013720036BEC6EF09F0365006E13504D8B0C4EFE8
:1013820009F0C6EF09F0CAEF08F038BED1EF09F054
:10139200385008E13704D8A0D1EF09F0D3EF09F0B3
:1013A200DFEF09F0000166B3D9EF09F0DBEF09F0D6
:1013B200CAEF08F0DFEF09F0DFEF09F0000166A9DC
:1013C200E5EF09F0E7EF09F0FFEF09F04106D8A0D9
:1013D2004206680E4124D96E000E4220DA6E28C001
:1013E200DFFF4106D8A04206680E4124D96E000EE6
:1013F2004220DA6E300EDF6EFFEF09F01EC013F0EE
:101402001FC014F0680E4124156E000E4220166EA5
:1014120037C017F038C018F0DAEC0EF013C01EF027
:1014220014C01FF015EF0AF0120047C0D9FF48C0E0
:10143200DAFFDECFF6FFDDCFF7FF0800F550250A11
:10144200D8A426EF0AF028EF0AF08DEF0BF047C080
:10145200D9FF48C0DAFFDE2A000EDD22000E0001AD
:10146200636F000E626F62C066F063C067F064690A
:10147200656947C0D9FF48C0DAFFDECFF6FFDDCF8E
:10148200F7FF0800F550630AD8A44AEF0AF04CEFC0
:101492000AF075EF0AF047C0D9FF48C0DAFFDE2A2A
:1014A200000EDD2249C0D9FF4AC0DAFFDFCF4BF080
:1014B200020EDE26DFCF4CF0000EDD224BC0D9FF3C
:1014C2004CC0DAFFDF505F6E45C01EF046C01FF011
:1014D2005FC020F072EC10F01EC045F01FC046F055
:1014E200ACEF0BF0ACEF0BF047C0D9FF48C0DAFF0E
:1014F200DECFF6FFDDCFF7FF0800F550640AD8B45F
:1015020085EF0AF087EF0AF09BEF0AF047C0D9FF98
:1015120048C0DAFFDECFF6FFDDCFF7FF0800F55057
:10152200690AD8A497EF0AF099EF0AF0DDEF0AF002
:101532009BEF0AF047C0D9FF48C0DAFFDE2A000E4F
:10154200DD2249C0D9FF4AC0DAFFDFCF4BF0020EDD
:10155200DE26DFCF4CF0000EDD224BC0D9FF4CC09F
:10156200DAFFDECF4FF0DDCF50F0000E50BEFF0E9F
:10157200516E526E536E546E556E566E45C01EF0CD
:1015820046C01FF04FC020F050C021F051C022F0E1
:1015920052C023F053C024F054C025F055C026F0A9
:1015A20056C027F0ADEC0BF01EC045F01FC046F050
:1015B200ACEF0BF0ACEF0BF047C0D9FF48C0DAFF3D
:1015C200DECFF6FFDDCFF7FF0800F550780AD8B47A
:1015D200EDEF0AF0EFEF0AF003EF0BF047C0D9FF8F
:1015E20048C0DAFFDECFF6FFDDCFF7FF0800F55087
:1015F200580AD8A4FFEF0AF001EF0BF053EF0BF0FB
:1016020003EF0BF047C0D9FF48C0DAFFDECFF6FF89
:10161200DDCFF7FF0800F5CF5FF047C0D9FF48C024
:10162200DAFFDE2A000EDD2249C0D9FF4AC0DAFF06
:10163200DFCF4BF0020EDE26DFCF4CF0000EDD22B4
:101642004BC0D9FF4CC0DAFFDECF4DF0DDCF4EF0FC
:101652004DC057F04EC058F0596A5A6A5B6A5C6ACC
:101662005D6A5E6A45C01EF046C01FF057C020F09A
:1016720058C021F059C022F05AC023F05BC024F0B8
:101682005CC025F05DC026F05EC027F05FC028F088
:1016920079EC08F01EC045F01FC046F0ACEF0BF02D
:1016A200ACEF0BF047C0D9FF48C0DAFFDECFF6FF40
:1016B200DDCFF7FF0800F550250AD8A463EF0BF041
:1016C20065EF0BF07EEF0BF047C0D9FF48C0DAFFA1
:1016D200DE2A000EDD22000E046E250E036E45C0CA
:1016E20005F046C006F0ABEC0FF0000E466E010EA0
:1016F200456EACEF0BF0ACEF0BF047C0D9FF48C022
:10170200DAFFDE2A000EDD22000E466E000E456E66
:10171200ACEF0BF0ACEF0BF047C0D9FF48C0DAFFDB
:10172200DECFF6FFDDCFF7FF0800F550036E046A47
:1017320045C005F046C006F0ABEC0FF047C0D9FF3C
:1017420048C0DAFFDE2A000EDD22000E466E010ED0
:10175200456EACEF0BF0120020C038F021C039F01A
:1017620022C03AF023C03BF024C03CF025C03DF03B
:1017720026C03EF027C03FF03FBEC2EF0BF0C5EFE0
:101782000BF0010EC6EF0BF0000E366E376A3650C4
:101792003710D8B4CFEF0BF0D1EF0BF0E3EF0BF033
:1017A2003F1E3E1E3D1E3C1E3B1E3A1E391E386C1D
:1017B200000E39223A223B223C223D223E223F2287
:1017C200E3EF0BF0000165BFE9EF0BF0EBEF0BF07D
:1017D200EEEF0BF06693EEEF0BF065BFFBEF0BF055
:1017E200655106E16405D8B0F9EF0BF0FBEF0BF0A1
:1017F20001EF0CF0000E336E010E326E05EF0CF0AD
:1018020064C032F065C033F062C034F063C035F0BA
:1018120036503710D8A410EF0CF012EF0CF01BEF7B
:101822000CF066A517EF0CF019EF0CF020EF0CF09E
:101832001BEF0CF03406D8A0350620EF0CF0000E9A
:10184200416E1F0E406E680E4024D96E000E41207C
:10185200DA6E000EDF6EACEF0CF04006D8A0410647
:10186200680E4024D96E000E4120DA6E38C001F0B5
:1018720039C002F03AC003F03BC004F03CC005F0AE
:101882003DC006F03EC007F03FC008F00A0E096EE8
:10189200000E0A6E000E0B6E000E0C6E000E0D6E28
:1018A200000E0E6E000E0F6E000E106E14EC0EF097
:1018B20001C028F002C029F003C02AF004C02BF0B6
:1018C20005C02CF006C02DF007C02EF008C02FF086
:1018D20028C013F02AC014F0F2EC10F01350300FAD
:1018E200DF6E3206D8A033063406D8A0350638C0DB
:1018F20001F039C002F03AC003F03BC004F03CC032
:1019020005F03DC006F03EC007F03FC008F00A0EE9
:10191200096E000E0A6E000E0B6E000E0C6E000EAB
:101922000D6E000E0E6E000E0F6E000E106E3CEC71
:101932000DF001C038F002C039F003C03AF004C023
:101942003BF005C03CF006C03DF007C03EF008C0C9
:101952003FF0ACEF0CF041BEB7EF0CF0415008E1A4
:101962004004D8A0B7EF0CF0B9EF0CF0F0EF0CF098
:10197200385039103A103B103C103D103E103F10C9
:10198200D8A4C6EF0CF0C8EF0CF02EEF0CF033BE6B
:10199200D5EF0CF0335006E13204D8B0D3EF0CF09F
:1019A200D5EF0CF02EEF0CF035BEE0EF0CF0355019
:1019B20008E13404D8A0E0EF0CF0E2EF0CF0F0EF15
:1019C2000CF0000166B3E8EF0CF0EAEF0CF02EEF3A
:1019D2000CF0F0EF0CF0F0EF0CF0F0EF0CF03650F2
:1019E2003710D8A4F7EF0CF0F9EF0CF003EF0DF07D
:1019F200000166A5FFEF0CF001EF0DF025EF0DF0F1
:101A020003EF0DF04006D8A0410636503710D8A497
:101A12000DEF0DF00FEF0DF015EF0DF0000E316E22
:101A22002B0E306E1BEF0DF0000E316E2D0E306E50
:101A32001BEF0DF0680E4024D96E000E4120DA6EC5
:101A420030C0DFFF25EF0DF01EC013F01FC014F0F1
:101A5200680E4024156E000E4120166E34C017F039
:101A620035C018F0DAEC0EF013C01EF014C01FF0EF
:101A72003BEF0DF01200000E126E10BE45EF0DF09E
:101A820043EF0DF059EF0DF0101E0F1E0E1E0D1E2E
:101A92000C1E0B1E0A1E096C000E0A220B220C22BF
:101AA2000D220E220F221022010E126E59EF0DF09E
:101AB20008BE60EF0DF05EEF0DF074EF0DF0081E42
:101AC200071E061E051E041E031E021E016C000ECA
:101AD2000222032204220522062207220822010EE4
:101AE200121A74EF0DF020EE13F0070EDE6AE8060C
:101AF200FDE209500A100B100C100D100E100F1001
:101B02001010D8B487EF0DF089EF0DF0E7EF0DF06C
:101B1200010E116E99EF0DF0D89009360A360B3688
:101B22000C360D360E360F361036112A99EF0DF09F
:101B320010AE9EEF0DF0A0EF0DF08DEF0DF0A4EFC3
:101B42000DF0A4EF0DF0D890133614361536163674
:101B52001736183619361A360950015C0A500258DF
:101B62000B5003580C5004580D5005580E5006588F
:101B72000F50075810500858D8A0C2EF0DF0C4EF0C
:101B82000DF0D7EF0DF00950015E0A50025A0B50CA
:101B9200035A0C50045A0D50055A0E50065A0F5053
:101BA200075A1050085A1380D7EF0DF0D890103210
:101BB2000F320E320D320C320B320A320932112E32
:101BC200A4EF0DF0E7EF0DF0E7EF0DF01250D8B4EF
:101BD200EDEF0DF0EFEF0DF001EF0EF01A1E191EF2
:101BE200181E171E161E151E141E136C000E14222C
:101BF200152216221722182219221A2201EF0EF09C
:101C020013C001F014C002F015C003F016C004F0B6
:101C120017C005F018C006F019C007F01AC008F086
:101C220013EF0EF01200000E126E08BE1DEF0EF042
:101C32001BEF0EF031EF0EF0081E071E061E051EEA
:101C4200041E031E021E016C000E02220322042245
:101C52000522062207220822010E126E31EF0EF033
:101C620010BE38EF0EF036EF0EF04AEF0EF0101EF7
:101C72000F1E0E1E0D1E0C1E0B1E0A1E096C000EE0
:101C82000A220B220C220D220E220F2210224AEFD0
:101C92000EF009500A100B100C100D100E100F1040
:101CA2001010D8B457EF0EF059EF0EF0ADEF0EF062
:101CB200010E116E69EF0EF0D89009360A360B3616
:101CC2000C360D360E360F361036112A69EF0EF02D
:101CD20010AE6EEF0EF070EF0EF05DEF0EF074EFDF
:101CE2000EF074EF0EF00950015C0A5002580B50CE
:101CF20003580C5004580D5005580E5006580F50FA
:101D0200075810500858D8A089EF0EF08BEF0EF04C
:101D12009DEF0EF00950015E0A50025A0B50035A11
:101D22000C50045A0D50055A0E50065A0F50075ABD
:101D32001050085A9DEF0EF0D89010320F320E322A
:101D42000D320C320B320A320932112E74EF0EF0C0
:101D5200ADEF0EF0ADEF0EF01250D8B4B3EF0EF0BF
:101D6200B5EF0EF0C7EF0EF0081E071E061E051E89
:101D7200041E031E021E016C000E02220322042214
:101D82000522062207220822C7EF0EF001C001F049
:101D920002C002F003C003F004C004F005C005F065
:101DA20006C006F007C007F008C008F0D9EF0EF031
:101DB2001200000166A1E0EF0EF0E2EF0EF0EEEF8E
:101DC2000EF015C00CF016C00DF013C00EF014C0CA
:101DD2000FF0CCEC10F0EEEF0EF018BEF3EF0EF0B9
:101DE200F5EF0EF0FBEF0EF017C01CF018C01DF05F
:101DF200FFEF0EF0000E1D6E000E1C6E000E1B6E2D
:101E0200000E1A6E13EF0FF0000E046E200E036E1A
:101E120013C005F014C006F0ABEC0FF01A4A1B2AEF
:101E220013EF0FF01C501A5C1B50800A196E1D50E4
:101E3200800A1958D8A020EF0FF022EF0FF005EF1B
:101E42000FF0000166B128EF0FF02AEF0FF036EF26
:101E52000FF015C00CF016C00DF013C00EF014C038
:101E62000FF0CCEC10F036EF0FF015C001F016C0F9
:101E720002F0A3EC10F01C500124136E1D5002203E
:101E8200146E44EF0FF0120029EC12F0180E00014C
:101E92009A6FFB0E996F9869000E8A6E14EC11F01E
:101EA20014EC11F08A6814EC11F014EC11F0000E2D
:101EB2008A6EE80E026E100E036E76EC11F014ECD0
:101EC20011F0010E0001906F100E916FD1EC11F024
:101ED200D70E0001906F100E916F9AC092F0936B23
:101EE200D1EC11F06E0E0001906F100E916FD1ECDB
:101EF20011F09C0E0001906F100E916F98C092F03D
:101F020099C093F0D1EC11F03C0E0001906F100ECD
:101F1200916FD1EC11F08EEF0FF0EBEC11F00001AC
:101F22009B6FBA0E906F100E916F9BC092F0936BE5
:101F3200D1EC11F0710E0001906F100E916F9BC0E9
:101F420092F0936BD1EC11F08EEF0FF08EEF0FF059
:101F520000EF00F005500610D8B4B2EF0FF0B4EF66
:101F62000FF0BFEF0FF005500610D8A4BBEF0FF033
:101F7200BDEF0FF0C4EF0FF0BFEF0FF0035037ECDF
:101F820012F0FFEF0FF020EE04F00550D9260650B4
:101F9200DA22DE50DE10D8B4D1EF0FF0D3EF0FF01B
:101FA200F0EF0FF020EE04F00550D9260650DA22A9
:101FB20010EE02F00550E1260650E222DE50E65C09
:101FC200E650800A0B6EDE50800A0B58D8B0ECEF58
:101FD2000FF0EEEF0FF0FFEF0FF0F0EF0FF020EE4B
:101FE20002F00550D9260650DA22DE2A000EDD2242
:101FF200FFEF0FF0FFEF0FF0FFEF0FF012009F0E59
:10200200096EFF0E0A6E07C00BF008C00CF00950F3
:102012000B260A500C220C500AE11A0E0B5CD8A0B7
:1020220015EF10F018EF10F0010E19EF10F0000E7E
:102032000D6E0E6A29EF10F007C001F008C002F021
:1020420095EC11F001C00DF002C00EF029EF10F076
:102052000D500E10D8B430EF10F032EF10F03AEF0E
:1020620010F05F0E0714076E086A3EEF10F03EEFA5
:1020720010F007C007F008C008F012008AC08EF006
:102082008BC08FF0000E0001616F000E606F5FEF7A
:1020920010F088C045F089C046F08E0E476E000EE3
:1020A200486E8CC049F08DC04AF016EC0AF04550DB
:1020B20000016027465061235FEF10F08EC0F6FFEB
:1020C2008FC0F7FF0800F5500009D8A46BEF10F09D
:1020D2006DEF10F04AEF10F060C088F061C089F037
:1020E2001200000162516311D8A47AEF10F07CEF64
:1020F20010F082EF10F062C021F063C022F08AEF8C
:1021020010F0FF0E6225216EFF0E6321226E8AEF10
:1021120010F020C068F0000E696F1EC013F01FC0DF
:1021220014F0680E156E000E166E21C017F022C054
:1021320018F0DAEC0EF013C01EF014C01FF0A2EF7C
:1021420010F0120001C005F002C006F0ADEF10F071
:10215200014A022AADEF10F001C0D9FF02C0DAFF36
:10216200DF50D8A4B7EF10F0B9EF10F0A9EF10F0DC
:10217200BBEF10F005C003F006C004F0031E041EFE
:10218200034A042A01500324016E02500420026E05
:10219200CBEF10F01200000E126E000E116EDFEF88
:1021A20010F010C003F0046A0EC005F00FC006F074
:1021B200ABEC0FF0114A122ADFEF10F011500C2491
:1021C200D96E12500D20DA6EDF50106E1050D8A466
:1021D200EDEF10F0EFEF10F0D2EF10F0F1EF10F0A2
:1021E200120014BEFFEF10F0145006E11304D8B031
:1021F200FDEF10F0FFEF10F00DEF11F013C015F02E
:1022020014C016F0151E161E154A162A15C013F014
:1022120016C014F013EF11F013C013F014C014F031
:1022220013EF11F01200000E026E180E02641CEF82
:1022320011F01EEF11F022EF11F035EF11F035EF32
:1022420011F0000E016E540EE82EFED7012EFCD7BF
:1022520000D0022A180E026431EF11F033EF11F0B0
:1022620022EF11F035EF11F012009F0E036EFF0EF8
:10227200046E200E0110056E000E0210066E035051
:1022820005260450062206500AE11A0E055CD8A063
:102292004DEF11F050EF11F0010E51EF11F0000E61
:1022A200016E026A55EF11F01200000E8D6E000EE3
:1022B2008C6E000E896E000E8A6E000E8B6E070EFB
:1022C200966E9268000E936EBF0E946E95680F0123
:1022D2003B693C0E3A6F000E396F070E3C6F2F0EB2
:1022E200386F000E616EF18E120084EF11F002C0A1
:1022F200F6FF03C0F7FF0800F55003EC12F0024AA4
:10230200032A84EF11F002C0F6FF03C0F7FF0800B2
:10231200F5500009D8A490EF11F092EF11F078EF88
:1023220011F094EF11F012009F0E036EFF0E046E77
:1023320001C005F002C006F0035005260450062233
:1023420006500AE11A0E055CD8A0AAEF11F0ADEF13
:1023520011F0010EAEEF11F0000E016E026AB2EF43
:1023620011F01200BF0E036EFF0E046E01C005F0E5
:1023720002C006F0035005260450062206500AE168
:102382001A0E055CD8A0C8EF11F0CBEF11F0010EC8
:10239200CCEF11F0000E016E026AD0EF11F01200C4
:1023A200920E0001966F000E976F000E886F000E5E
:1023B200896F90C08AF091C08BF0960E8C6F000EE0
:1023C2008D6F3FEC10F088C094F089C095F0EAEF71
:1023D20011F01200EDEF11F09EAAF2EF11F0F4EFFE
:1023E20011F0EDEF11F0ABA2F9EF11F0FBEF11F0EC
:1023F200FFEF11F0AB98AB88FFEF11F0AE5002EF98
:1024020012F01200016E06EF12F09EA80BEF12F00E
:102412000DEF12F006EF12F00FEF12F001C0ADFF58
:10242200120000EE60F0280EEE6AE806FDE1000EF2
:10243200F86E100EF76E000145EF0FF0080EB86E41
:10244200900EAB6E240EAC6EAF68010EB06E120031
:1024520056EC11F030EC12F01FEC12F01200300EBC
:10246200D36E040ED26E000E9B6E1200026E0250EC
:0624720003EC12F0120061
:020000040020DA
:08000000FFFFFFFFFFFFFFFF00
:020000040030CA
:0E000000FF22193CFFBF85FF0FC00FE00F402D
:00000001FF
